{
  "_format": "hh-sol-artifact-1",
  "contractName": "FactoryAggregator",
  "sourceName": "contracts/FactoryAggregator.sol",
  "abi": [
    {
      "inputs": [
        {
          "internalType": "address",
          "name": "_factoryAddress",
          "type": "address"
        },
        {
          "internalType": "string",
          "name": "_factoryName",
          "type": "string"
        },
        {
          "internalType": "string",
          "name": "_factoryDescription",
          "type": "string"
        },
        {
          "internalType": "bool",
          "name": "_audited",
          "type": "bool"
        }
      ],
      "name": "addFactory",
      "outputs": [],
      "stateMutability": "nonpayable",
      "type": "function"
    },
    {
      "inputs": [
        {
          "internalType": "address",
          "name": "",
          "type": "address"
        }
      ],
      "name": "factories",
      "outputs": [
        {
          "internalType": "address",
          "name": "factoryAddress",
          "type": "address"
        },
        {
          "internalType": "string",
          "name": "factoryName",
          "type": "string"
        },
        {
          "internalType": "string",
          "name": "factoryDescription",
          "type": "string"
        },
        {
          "internalType": "bool",
          "name": "audited",
          "type": "bool"
        }
      ],
      "stateMutability": "view",
      "type": "function"
    },
    {
      "inputs": [
        {
          "internalType": "uint256",
          "name": "",
          "type": "uint256"
        }
      ],
      "name": "factoryAddresses",
      "outputs": [
        {
          "internalType": "address",
          "name": "",
          "type": "address"
        }
      ],
      "stateMutability": "view",
      "type": "function"
    },
    {
      "inputs": [],
      "name": "getAllFactories",
      "outputs": [
        {
          "components": [
            {
              "internalType": "address",
              "name": "factoryAddress",
              "type": "address"
            },
            {
              "internalType": "string",
              "name": "factoryName",
              "type": "string"
            },
            {
              "internalType": "string",
              "name": "factoryDescription",
              "type": "string"
            },
            {
              "internalType": "bool",
              "name": "audited",
              "type": "bool"
            }
          ],
          "internalType": "struct FactoryAggregator.FactoryDetails[]",
          "name": "",
          "type": "tuple[]"
        }
      ],
      "stateMutability": "view",
      "type": "function"
    },
    {
      "inputs": [
        {
          "internalType": "address",
          "name": "_factoryAddress",
          "type": "address"
        }
      ],
      "name": "getSingleFactory",
      "outputs": [
        {
          "components": [
            {
              "internalType": "address",
              "name": "factoryAddress",
              "type": "address"
            },
            {
              "internalType": "string",
              "name": "factoryName",
              "type": "string"
            },
            {
              "internalType": "string",
              "name": "factoryDescription",
              "type": "string"
            },
            {
              "internalType": "bool",
              "name": "audited",
              "type": "bool"
            }
          ],
          "internalType": "struct FactoryAggregator.FactoryDetails",
          "name": "",
          "type": "tuple"
        }
      ],
      "stateMutability": "view",
      "type": "function"
    }
  ],
  "bytecode": "0x608060405234801561001057600080fd5b50611362806100206000396000f3fe608060405234801561001057600080fd5b50600436106100575760003560e01c806334fb66d51461005c57806347486aa11461008c578063a0750598146100a8578063d85ef446146100c6578063fab52689146100f6575b600080fd5b610076600480360381019061007191906109ae565b610129565b6040516100839190610aff565b60405180910390f35b6100a660048036038101906100a19190610c82565b610316565b005b6100b061048c565b6040516100bd9190610e4d565b60405180910390f35b6100e060048036038101906100db9190610ea5565b610750565b6040516100ed9190610ee1565b60405180910390f35b610110600480360381019061010b91906109ae565b61078f565b6040516101209493929190610f55565b60405180910390f35b6101316108fc565b6000808373ffffffffffffffffffffffffffffffffffffffff1673ffffffffffffffffffffffffffffffffffffffff1681526020019081526020016000206040518060800160405290816000820160009054906101000a900473ffffffffffffffffffffffffffffffffffffffff1673ffffffffffffffffffffffffffffffffffffffff1673ffffffffffffffffffffffffffffffffffffffff1681526020016001820180546101e090610fd7565b80601f016020809104026020016040519081016040528092919081815260200182805461020c90610fd7565b80156102595780601f1061022e57610100808354040283529160200191610259565b820191906000526020600020905b81548152906001019060200180831161023c57829003601f168201915b5050505050815260200160028201805461027290610fd7565b80601f016020809104026020016040519081016040528092919081815260200182805461029e90610fd7565b80156102eb5780601f106102c0576101008083540402835291602001916102eb565b820191906000526020600020905b8154815290600101906020018083116102ce57829003601f168201915b505050505081526020016003820160009054906101000a900460ff1615151515815250509050919050565b60405180608001604052808573ffffffffffffffffffffffffffffffffffffffff1681526020018481526020018381526020018215158152506000808673ffffffffffffffffffffffffffffffffffffffff1673ffffffffffffffffffffffffffffffffffffffff16815260200190815260200160002060008201518160000160006101000a81548173ffffffffffffffffffffffffffffffffffffffff021916908373ffffffffffffffffffffffffffffffffffffffff16021790555060208201518160010190816103e991906111b4565b5060408201518160020190816103ff91906111b4565b5060608201518160030160006101000a81548160ff0219169083151502179055509050506001849080600181540180825580915050600190039060005260206000200160009091909190916101000a81548173ffffffffffffffffffffffffffffffffffffffff021916908373ffffffffffffffffffffffffffffffffffffffff16021790555050505050565b6060600060018054905067ffffffffffffffff8111156104af576104ae610b2b565b5b6040519080825280602002602001820160405280156104e857816020015b6104d56108fc565b8152602001906001900390816104cd5790505b50905060005b600180549050811015610748576000806001838154811061051257610511611286565b5b9060005260206000200160009054906101000a900473ffffffffffffffffffffffffffffffffffffffff1673ffffffffffffffffffffffffffffffffffffffff1673ffffffffffffffffffffffffffffffffffffffff1681526020019081526020016000206040518060800160405290816000820160009054906101000a900473ffffffffffffffffffffffffffffffffffffffff1673ffffffffffffffffffffffffffffffffffffffff1673ffffffffffffffffffffffffffffffffffffffff1681526020016001820180546105e890610fd7565b80601f016020809104026020016040519081016040528092919081815260200182805461061490610fd7565b80156106615780601f1061063657610100808354040283529160200191610661565b820191906000526020600020905b81548152906001019060200180831161064457829003601f168201915b5050505050815260200160028201805461067a90610fd7565b80601f01602080910402602001604051908101604052809291908181526020018280546106a690610fd7565b80156106f35780601f106106c8576101008083540402835291602001916106f3565b820191906000526020600020905b8154815290600101906020018083116106d657829003601f168201915b505050505081526020016003820160009054906101000a900460ff16151515158152505082828151811061072a57610729611286565b5b60200260200101819052508080610740906112e4565b9150506104ee565b508091505090565b6001818154811061076057600080fd5b906000526020600020016000915054906101000a900473ffffffffffffffffffffffffffffffffffffffff1681565b60006020528060005260406000206000915090508060000160009054906101000a900473ffffffffffffffffffffffffffffffffffffffff16908060010180546107d890610fd7565b80601f016020809104026020016040519081016040528092919081815260200182805461080490610fd7565b80156108515780601f1061082657610100808354040283529160200191610851565b820191906000526020600020905b81548152906001019060200180831161083457829003601f168201915b50505050509080600201805461086690610fd7565b80601f016020809104026020016040519081016040528092919081815260200182805461089290610fd7565b80156108df5780601f106108b4576101008083540402835291602001916108df565b820191906000526020600020905b8154815290600101906020018083116108c257829003601f168201915b5050505050908060030160009054906101000a900460ff16905084565b6040518060800160405280600073ffffffffffffffffffffffffffffffffffffffff16815260200160608152602001606081526020016000151581525090565b6000604051905090565b600080fd5b600080fd5b600073ffffffffffffffffffffffffffffffffffffffff82169050919050565b600061097b82610950565b9050919050565b61098b81610970565b811461099657600080fd5b50565b6000813590506109a881610982565b92915050565b6000602082840312156109c4576109c3610946565b5b60006109d284828501610999565b91505092915050565b6109e481610970565b82525050565b600081519050919050565b600082825260208201905092915050565b60005b83811015610a24578082015181840152602081019050610a09565b60008484015250505050565b6000601f19601f8301169050919050565b6000610a4c826109ea565b610a5681856109f5565b9350610a66818560208601610a06565b610a6f81610a30565b840191505092915050565b60008115159050919050565b610a8f81610a7a565b82525050565b6000608083016000830151610aad60008601826109db565b5060208301518482036020860152610ac58282610a41565b91505060408301518482036040860152610adf8282610a41565b9150506060830151610af46060860182610a86565b508091505092915050565b60006020820190508181036000830152610b198184610a95565b905092915050565b600080fd5b600080fd5b7f4e487b7100000000000000000000000000000000000000000000000000000000600052604160045260246000fd5b610b6382610a30565b810181811067ffffffffffffffff82111715610b8257610b81610b2b565b5b80604052505050565b6000610b9561093c565b9050610ba18282610b5a565b919050565b600067ffffffffffffffff821115610bc157610bc0610b2b565b5b610bca82610a30565b9050602081019050919050565b82818337600083830152505050565b6000610bf9610bf484610ba6565b610b8b565b905082815260208101848484011115610c1557610c14610b26565b5b610c20848285610bd7565b509392505050565b600082601f830112610c3d57610c3c610b21565b5b8135610c4d848260208601610be6565b91505092915050565b610c5f81610a7a565b8114610c6a57600080fd5b50565b600081359050610c7c81610c56565b92915050565b60008060008060808587031215610c9c57610c9b610946565b5b6000610caa87828801610999565b945050602085013567ffffffffffffffff811115610ccb57610cca61094b565b5b610cd787828801610c28565b935050604085013567ffffffffffffffff811115610cf857610cf761094b565b5b610d0487828801610c28565b9250506060610d1587828801610c6d565b91505092959194509250565b600081519050919050565b600082825260208201905092915050565b6000819050602082019050919050565b6000608083016000830151610d6560008601826109db565b5060208301518482036020860152610d7d8282610a41565b91505060408301518482036040860152610d978282610a41565b9150506060830151610dac6060860182610a86565b508091505092915050565b6000610dc38383610d4d565b905092915050565b6000602082019050919050565b6000610de382610d21565b610ded8185610d2c565b935083602082028501610dff85610d3d565b8060005b85811015610e3b5784840389528151610e1c8582610db7565b9450610e2783610dcb565b925060208a01995050600181019050610e03565b50829750879550505050505092915050565b60006020820190508181036000830152610e678184610dd8565b905092915050565b6000819050919050565b610e8281610e6f565b8114610e8d57600080fd5b50565b600081359050610e9f81610e79565b92915050565b600060208284031215610ebb57610eba610946565b5b6000610ec984828501610e90565b91505092915050565b610edb81610970565b82525050565b6000602082019050610ef66000830184610ed2565b92915050565b600082825260208201905092915050565b6000610f18826109ea565b610f228185610efc565b9350610f32818560208601610a06565b610f3b81610a30565b840191505092915050565b610f4f81610a7a565b82525050565b6000608082019050610f6a6000830187610ed2565b8181036020830152610f7c8186610f0d565b90508181036040830152610f908185610f0d565b9050610f9f6060830184610f46565b95945050505050565b7f4e487b7100000000000000000000000000000000000000000000000000000000600052602260045260246000fd5b60006002820490506001821680610fef57607f821691505b60208210810361100257611001610fa8565b5b50919050565b60008190508160005260206000209050919050565b60006020601f8301049050919050565b600082821b905092915050565b60006008830261106a7fffffffffffffffffffffffffffffffffffffffffffffffffffffffffffffffff8261102d565b611074868361102d565b95508019841693508086168417925050509392505050565b6000819050919050565b60006110b16110ac6110a784610e6f565b61108c565b610e6f565b9050919050565b6000819050919050565b6110cb83611096565b6110df6110d7826110b8565b84845461103a565b825550505050565b600090565b6110f46110e7565b6110ff8184846110c2565b505050565b5b81811015611123576111186000826110ec565b600181019050611105565b5050565b601f8211156111685761113981611008565b6111428461101d565b81016020851015611151578190505b61116561115d8561101d565b830182611104565b50505b505050565b600082821c905092915050565b600061118b6000198460080261116d565b1980831691505092915050565b60006111a4838361117a565b9150826002028217905092915050565b6111bd826109ea565b67ffffffffffffffff8111156111d6576111d5610b2b565b5b6111e08254610fd7565b6111eb828285611127565b600060209050601f83116001811461121e576000841561120c578287015190505b6112168582611198565b86555061127e565b601f19841661122c86611008565b60005b828110156112545784890151825560018201915060208501945060208101905061122f565b86831015611271578489015161126d601f89168261117a565b8355505b6001600288020188555050505b505050505050565b7f4e487b7100000000000000000000000000000000000000000000000000000000600052603260045260246000fd5b7f4e487b7100000000000000000000000000000000000000000000000000000000600052601160045260246000fd5b60006112ef82610e6f565b91507fffffffffffffffffffffffffffffffffffffffffffffffffffffffffffffffff8203611321576113206112b5565b5b60018201905091905056fea264697066735822122026091251678394e5542327102446ca4e633e9d6e0c4ad9f56fb6fdcb96ca457e64736f6c63430008120033",
  "linkReferences": {},
  "deployedLinkReferences": {}
}